:100000000C9417040C945E040C945E040C945E042F
:100010000C945E040C945E040C945E040C945E04D8
:100020000C945E040C945E040C94A82A0C947A2B15
:100030000C9499210C945E040C945E040C945E0460
:100040000C945E040C945E040C945E040C945E04A8
:100050000C945E040C94E6210C945E040C945E04F3
:100060000C945E040C945E040C945E040C945E0488
:100070000C945E040C945E040C945E040C945E0478
:100080000C945E040C945E040C945E040C945E0468
:100090000C945E040C945E040C945E040C945E0458
:1000A0000C945E040C945E040C945E049F0FA20FEB
:1000B000AA0FAF0FB40FB90FBE0FC30FC80FCD0FEC
:1000C000D20FD70FD90FDC0FDF0FE20FE50FE80FCC
:1000D000EA0FEF0FD716D716091709175617741717
:1000E000951895187F171418251825188518951830
:1000F00095188E1835193519471947193E1947199A
:10010000471947193519351943194719471943191B
:10011000E72B0E2C062D0E2C062D5A2C7D2C062D91
:10012000D42CE32C35001E001F00200021002200EB
:10013000230024002500260027002D002E0031007A
:100140002A002B00000014001A00080015001700F8
:100150001C0018000C00120013002A004C002A0199
:100160002961000004001600070009000A000B00C6
:100170000D000E000F00340033002800000002556F
:1001800000001D001B0006001900050011001000F2
:1001900036003700380000001255E500F600E30095
:1001A000000003512A420000284100002C000000FA
:1001B000E000E2000000055304533D043A003B0018
:1001C0003C003D003E003F00400041004200430033
:1001D00044004500460046004C00000007082B057F
:1001E0002B044A08F90050014A004D004F0131002C
:1001F0002A014C0130022800000004011604070403
:100200000904FA005000510052004F002D002D0249
:100210002E000000E10000001D011B010601190174
:100220004D006500A800AA00A9001F020000E5001B
:10023000900001000000000000000100000001002B
:1002400000000000000000000000000001000100AC
:1002500029003A003B003C003D003E003F004000CA
:1002600041004200430044004500000000002A0015
:1002700000004B004A0052004D00100850031D01C1
:100280001C014F0300002F00300031002800000047
:100290004E00500051004F00100A2A002F02300279
:1002A0002602270224021E0200004C000000200249
:1002B00021023102350235002E02220234023704B7
:1002C00033000000E5000000010000000000010014
:1002D000010000000100000000000000E000E2005A
:1002E00000004C00010000001E081F082008210823
:1002F0002208230824082508260427082D082E088C
:10030000310800002B000000000000000808000079
:1003100000000000000000000000000000000000DD
:10032000005C39000000000016080708000000000B
:100330005008510852084F08000000002800000033
:10034000E1000000000000000000000000000000CC
:10035000000000000000000000000000000000009D
:10036000000000000100000000000000000000008C
:1003700000000000000000000000010029001E0035
:100380001F00200021002200230024002500260059
:1003900027002D002E002A002A002B000000140048
:1003A0001A000800150017001C0018000C001200AD
:1003B00013002F0030003100390000000400160047
:1003C000070009000A000B000D000E000F003300AB
:1003D000340028000000E10000001D001B000600A2
:1003E0001900050011001000360037003800000029
:1003F00052004F00E000E3000000E2002C0000008B
:100400002C0000002C000000E6005000000051000D
:1004100001000000000000000000000000000000DB
:1004200000000000000000000000000000000000CC
:100430004C0000004B004A00F0004D00000000009E
:100440000000F900000000002A004C002A01000012
:1004500000004E00F200F100F30000000000F40084
:10046000FA00F50000000000280000000000000075
:100470000000000000000000000000000000F60086
:10048000000000000000000000000000000000006C
:10049000000000000000000000000000000000005C
:1004A000000000000100010032190A00047F3F1F14
:1004B000643214643214783C1E1E140A052223256B
:1004C0002628292A2C2D2F3032333536383A3B3D19
:1004D0003E4042434547494A4C4E50515355575967
:1004E0005A5C5E6062646668696B6D6F7173757784
:1004F000797B7D7F81838587898A8C8E9092949683
:10050000989A9C9E9FA1A3A5A7A8AAACAEAFB1B391
:10051000B4B6B8B9BBBCBEBFC1C2C3C5C6C7C9CAE1
:10052000CBCCCDCED0D1D2D2D3D4D5D6D7D7D8D9A3
:10053000D9DADADBDBDBDCDCDCDCDCDDDDDDDDDC01
:10054000DCDCDCDCDBDBDBDADAD9D9D8D7D7D6D513
:10055000D4D3D2D2D1D0CECDCCCBCAC9C7C6C5C3D5
:10056000C2C1BFBEBCBBB9B8B6B4B3B1AFAEACAA22
:10057000A8A7A5A3A19F9E9C9A98969492908E8CD2
:100580008A89878583817F7D7B79777573716F6DAC
:100590006B6968666462605E5C5A59575553515086
:1005A0004E4C4A4947454342403E3D3B3A3836353A
:1005B0003332302F2D2C2A292826252322FFAA7FEB
:1005C0005540000101010101010101010202020285
:1005D00002020202020303030303030303040404ED
:1005E00004040404050505050506060606060707B6
:1005F00007070708080808090909090A0A0A0B0B6E
:100600000B0C0C0C0D0D0D0E0E0E0F0F0F1010110C
:100610001111121213131414151516161717181892
:1006200019191A1A1B1B1C1D1D1E1E1F20202122FA
:1006300022232424252626272829292A2B2C2D2D40
:100640002E2F30313232333435363738393A3B3C5D
:100650003D3E3F404142434445464748494A4C4D50
:100660004E4F50515354555658595A5B5D5E5F6119
:100670006264656668696B6C6D6F707273757778AC
:100680007A7B7D7E8082838587888A8C8E8F91930A
:100690009596989A9C9EA0A2A3A5A7A9ABADAFB131
:1006A000B3B5B7BABCBEC0C2C4C6C9CBCDCFD1D416
:1006B000D6D8DBDDDFE2E4E7E9EBEEF0F3F5F8FABC
:1006C000FDFF0A0344005A0036003000000010030A
:1006D0004B0042004400460061006E0073000000C1
:1006E0000403090409023B00020100A0FA09040006
:1006F000000103010100092111010001224000074E
:1007000005810308000A0904010001030000000933
:10071000211101000122BC000705820320000A12FA
:10072000011001000000085A44602201000102008B
:100730000105010902A10185020901A100050919AC
:1007400001290515002501950575018102950175A1
:100750000381010501093009311581257F95027555
:1007600008810609381581257F95017508810605E0
:100770000C0A38021581257F950175088106C0C0D5
:1007800005010980A101850319012AB70015012679
:10079000B700950175108100C0050C0901A1018504
:1007A0000419012AA002150126A0029501751081E5
:1007B00000C005010906A1018505050719E029E723
:1007C000150025019508750181020507190029EF1B
:1007D0001500250195F0750181020508190129050B
:1007E000950575019102950175039101C0050109F7
:1007F00006A101050719E029E715002501950875EF
:100800000181029501750881010507190029FF156D
:100810000026FF00950675088100050819012905C5
:10082000950575019102950175039101C000112490
:100830001FBECFEFDAE0DEBFCDBF04B603FE27C098
:1008400080916A0390916B03A0916C03B0916D034A
:100850008730904BA740B04BD1F410926A031092AE
:100860006B0310926C0310926D0314BE84B7877FE4
:1008700084BF0FB6F894A89580916000886180933A
:100880006000109260000FBEE0E0F8E3099511E00F
:10089000A0E0B1E0E2E5FDE502C005900D92AE3CBE
:1008A000B107D9F723E0AEECB1E001C01D92AA3642
:1008B000B207E1F70E94E8270C94A72E0C940000E1
:1008C00081E0089581E008950C94620408950C94E9
:1008D00066041F93CF93DF9300D000D01F92CDB753
:1008E000DEB749835A836B833091420289819A81B2
:1008F000311114C0662359F0222349F00E94711E61
:10090000182F682F89819A810E941A1E03C00E94A5
:10091000451E182F69817A81812F04C00E94711EA3
:1009200069817A810F900F900F900F900F90DF9157
:10093000CF911F910C943905FC01262F40815181E4
:100940006281738184810C946904CF93DF93EC01FD
:1009500060E00E949C04BE01DF91CF910C9467047B
:100960000E94A31F811102C00E945D200E942905E0
:100970000E9472110C9458070C94540708950E9419
:1009800023190E94BE042FEF84E39CE02150804095
:100990009040E1F700C000000C940C220F931F93CD
:1009A000CF93DF93EC0161E00E949C048C01BE01B7
:1009B0000E9464048823A9F1BE01C8010E94D310DB
:1009C000882379F1BE01C8010E944512882349F1AC
:1009D000BE01C8010E949712882319F1BE01C80107
:1009E0000E94C2138823E9F0BE01C8010E94880F4B
:1009F0008823B9F08A81882369F001158CE51807EE
:100A000031F00F3D1C4531F40E945D200AC00E9468
:100A1000BF0407C0CE01DF91CF911F910F910C94BD
:100A2000600480E0DF91CF911F910F9108950895A8
:100A30000C94170581E00895CF93C82F0E941A05E2
:100A4000882329F0C1FD02C02A9A01C02A98CF91BB
:100A50000895229A2A9A0895CF93C82F0E941805C4
:100A60008C2F0E941C05CF91089580E090E008959E
:100A700008952BE4829FC0011124FC012FE0729F96
:100A8000E00DF11D1124E60FF11DEE0FFF1FEC5DCF
:100A9000FE4F859194910895880F991FFC01E855A8
:100AA000FB4F859194910895CF93DF930E94390570
:100AB0000E946C06EC018115904508F041C0C115FB
:100AC00080E4D80708F0D1C0C83ED10510F5C03E7B
:100AD000D10508F0FDC0C83AD10578F4C53AD10572
:100AE00008F0A2C0C130D10509F4F2C008F4EEC08C
:100AF000C430D10508F0ECC0E9C0CF3BD10508F403
:100B00009BC0C03CD10508F4E1C0CE01805C9109D6
:100B10009EC0C11590E2D90758F4C11521E0D20753
:100B200008F0D6C0C03FD10508F4D0C0D065D0C011
:100B3000C11580E3D80708F08EC0CE019F7087C032
:100B4000C11595E5D90708F043C0C11524E5D207C2
:100B500008F0A2C0C11582E5D80708F5C11591E5D6
:100B6000D90708F085C0CE0174E0969587957A95EF
:100B7000E1F783709C2F937021E030E002C0220FD8
:100B8000331F9A95E2F73C68382BCF70C695C6950F
:100B900080E2C89FE0011124C22BD32B99C09E0193
:100BA000237033278C2F86958695C115D34508F081
:100BB00064C0C1E0D0E002C0CC0FDD1F2A95E2F78F
:100BC00020E2829FC0011124C82BD92BDC6880C091
:100BD000C11529E5D207A0F4C11588E5D80708F0AA
:100BE00060C0C11596E5D90708F070C08C2F0E942F
:100BF00000078F71C82FD0E0DC2FCC27D06268C0EF
:100C0000C1152AE5D20708F451C0CE0190568115CE
:100C1000904208F05BC08D2F8F710E940007DD2786
:100C2000D0628F71D82B54C0C55AD0E0C65ADE4F5F
:100C3000C881D0E0D0644CC0C85AD0E0CC0FDD1FD2
:100C4000C45DDE4F0990D881C02DD46441C00E949C
:100C50004C05EC013DC0CE019927D3FF03C0EC0148
:100C6000D86C36C0EC01D06C33C0DF70D06A30C0B5
:100C7000DC2FCC27C16FD06A2BC0C1E0D0E002C00E
:100C8000CC0FDD1F2A95E2F720E2829FC0011124DC
:100C9000C82BD92BDA681CC0DC2FCC27C46FD06AD4
:100CA00017C0DC2FCC27C06FD06A12C08C2F8F707A
:100CB0000E94000794E0D695C7959A95E1F7CF700A
:100CC000D0E0DC2FCC27D069C82B02C0C0E0D0E038
:100CD000CE01DF91CF9108958238910569F1B0F48A
:100CE0008133910509F46DC048F48932910509F406
:100CF00063C08A32910509F469C00895853391056E
:100D000009F455C089339105B9F00895833E9105E2
:100D100069F138F4803E9105B1F0823E910509F108
:100D20000895863E9105A9F1873E9105B9F1843E6B
:100D3000910509F064C023C020915B0320FD4FC0E2
:100D400021FD4DC0089580915B0380FD44C08091DA
:100D50005C0380FF44C080915B0384FD42C083EE4E
:100D60004DC080915B0382FF38C0F5CF80915B035B
:100D700082FD33C080915C0380FD31C0ECCF809157
:100D80005C0381FF32C080915B0384FD2AC087EE43
:100D900035C080915B0383FF26C0F5CF80915B0354
:100DA00083FD21C080915C0381FD1FC0ECCF809149
:100DB0005B0385FD1CC01DC080915B0385FD19C0D0
:100DC00016C080915B0386FD16C017C080915B033F
:100DD00086FD13C010C089E311C082EE0FC080EE03
:100DE0000DC080E00BC086EE09C084EE07C089E22A
:100DF00005C085E303C08AE201C081E390E0089565
:100E000090915B0392FF0DC0282F2871283019F4B0
:100E1000877F846006C0282F2471243011F48B7FD3
:100E2000886093FF0DC0282F2871283119F4877E20
:100E3000846106C0282F2471243111F48B7E8861CF
:100E400020915C0320FF0DC0382F3871383019F421
:100E5000877F816006C0382F3171313011F48E7F69
:100E6000886021FF0DC0282F2871283119F4877E52
:100E7000816106C0282F2171213111F48E7E886195
:100E800094FD877E0895E82FF0E0EE0FFF1FE95EE6
:100E9000FC4F808191810895089580EA8A95F1F749
:100EA000089508950C9451070C9452070C9451071F
:100EB0000C945607F894E82FE295EF70F0E031A11A
:100EC000282F2F7081E090E001C0880F2A95EAF763
:100ED000982F9095932391A392A1892B82A3789424
:100EE00008950F931F93CF93DF9380E90E945A07D1
:100EF00081E90E945A0782E90E945A0783E90E9409
:100F00005A0785E90E945A07CDE5D1E00CE611E0C9
:100F100089910E945A070C171D07D1F7EDE0F3E005
:100F2000A7E1B3E0119211921D921D9283E0E73187
:100F3000F807C1F785E00E942F08DF91CF911F913C
:100F40000F910C94B0047F928F929F92AF92BF92B8
:100F5000CF92DF92EF92FF920F931F93CF93DF9385
:100F6000CCE6D1E08DE0A82E83E0B82E97E1E92E03
:100F700093E0F92E712C01E010E06E018881F89465
:100F8000E82FE295EF70F0E021A18F70A80102C078
:100F9000440F551F8A95E2F7CA01922F982B91A30F
:100FA00092A18095892382A378940E944D07EDE554
:100FB000F1E020E030E0812C912C4191A42FA2950A
:100FC000AF70B0E090968C9190E04F7002C0959514
:100FD00087954A95E2F780FD08C0C801022E02C03D
:100FE000880F991F0A94E2F702C080E090E0882AF7
:100FF000992A2F5F3F4F2F303105F9F62196F601E0
:1010000080810E945A07F501808191818816990696
:1010100021F09182808281E001C080E0782AF2E0B4
:10102000AF0EB11CEA14FB0409F0A7CF272D45E051
:1010300067E173E08DE093E00E9430080E94BC04F9
:10104000872DDF91CF911F910F91FF90EF90DF904F
:10105000CF90BF90AF909F908F907F90089508950C
:10106000FF920F931F93CF93DF93F82E092F162F24
:10107000D72FC42F222349F081E08093D0010E9412
:10108000CB219093CF018093CE018091D001882312
:10109000D9F08091CE019091CF010E94D72106977F
:1010A00098F0EF2DF02FA12FBD2F80E090E04C2F76
:1010B00050E08417950734F4219131912D933D939D
:1010C0000196F7CF1092D001DF91CF911F910F9130
:1010D000FF900895EF92FF920F931F93CF93DF93AA
:1010E0008B01682F11110AC0442329F0E82FF0E08A
:1010F000EE53FA4F6491762F862F75C0212F30E082
:10110000E82FF0E0442321F0EE53FA4FE491F0E0B1
:1011100046E0049FC0011124CFEFD0E0BE010E9441
:10112000562D4BEA4603C001479F900D1124800FB6
:10113000911D800F911D982F990F890FAE01421BB1
:10114000530B4E9FD0014F9FB00D5E9FB00D1124E9
:101150009B2F189FA0011124452F55278E01041B9A
:10116000150B0E9FA0010F9F500D1E9F500D1124B7
:101170007E01E81AF108E29E8001E39E100DF29EC6
:10118000100D1124212F3327C21BD30BCE9F9001AA
:10119000CF9F300DDE9F300D112462307105A9F014
:1011A00048F46115710569F061307105C9F48B2F40
:1011B000752F0DC06430710581F058F066307105EF
:1011C00079F47E2F8B2F932F0DC0832F7B2F9E2F93
:1011D00009C08E2F7B2F952F05C08E2F732F02C035
:1011E0007E2F852F692FDF91CF911F910F91FF9057
:1011F000EF90089541E00E946A08089508950E94C2
:10120000FA080895CF93DF93762FE901682F842F92
:101210000E94FF08798368838A83DF91CF910895C4
:1012200080912103282F269530E02115310519F4EE
:101230008170826005C02B32310524F08170846595
:1012400080932103089588E090E00C94482ECF927B
:10125000DF92EF92FF926B017C010E941009B701AF
:10126000A60188E090E0FF90EF90DF90CF900C9483
:10127000662EE1E2F3E083E0808311828FEF8283C8
:101280008383148260817181828193810C94270908
:101290008091210380FF02C08695089580E0089523
:1012A00090912503933018F49F5F90932503882332
:1012B00051F060912103709122038091230390915A
:1012C00024030C942709089581E00C94500990910F
:1012D0002503992319F0915090932503882351F009
:1012E0006091210370912203809123039091240344
:1012F0000C942709089581E00C94670970E00C9420
:101300008211609108018091210380FF0AC08091C1
:10131000070123E0829FC00111248A5D9C4F0C9439
:101320007E098091090190910A01891780F7E82FC1
:10133000F0E09F01220F331FE20FF31FEA5DFC4F25
:101340001182108212828F5FF0CF9091210390FF63
:1013500016C09091090120910A01921770F4E92FAB
:10136000F0E0DF01AA0FBB1FEA0FFB1FEA5DFC4F95
:101370008183608342839F5FF0CF0C94810908953D
:10138000CF93DF9300D01F92CDB7DEB790912103AA
:1013900090FF0AC09E012F5F3F4F0E9402094B81C0
:1013A00069818A810E94A5090F900F900F90DF91AB
:1013B000CF910895CF93DF93EC01EC81F0E0E354FB
:1013C000FB4F4491E1E2F3E0628181810E94C00918
:1013D0008C818F5F8C83DF91CF910895CF93DF93C2
:1013E000EC01E1E2F3E0438162818C810E94C0095B
:1013F0008C818F5F8C83DF91CF9108950F931F9322
:10140000CF93DF9300D01F92CDB7DEB78C018091D0
:10141000D10181110AC09E012F5F3F4F4FEF6FEF47
:101420000E9402098A818093D101F8018481813070
:1014300051F028F0823061F44091D1010AC08091CE
:10144000D10140E007C06091D10140E080E003C0DD
:1014500040E080E060E00E94A509F801848190E00E
:10146000019663E070E00E946A2D84830F900F90D4
:101470000F90DF91CF911F910F910895AF92BF927E
:10148000CF92DF92EF92FF920F931F93CF93DF9350
:1014900000D01F92CDB7DEB7182FF62E042FE22E04
:1014A0009091210390FF6DC0E92FE695AE2FB0E03B
:1014B000AF58BE4F8C9180932B029E7F923061F487
:1014C0009E012F5F3F4F812F0E9402094B8169814E
:1014D0008A810E94A50943C0823019F40091240337
:1014E0003EC0863019F41091220339C08930D9F3F7
:1014F0008931A9F5E9518E2F8170D82EE695F0E05B
:10150000E354FA4FA590B490C12CBB2460910B0119
:10151000C61618F52C2D30E0A29EC001A39E900D9A
:10152000B29E900D112470E00E94562D812FD11093
:1015300002C0860F01C0861B90910901290F311D41
:10154000A901440F551F240F351F2A5D3C4F402F22
:101550006F2D0E940209C394D9CF0E948109109374
:101560002203F092230300932403EE2051F06091B4
:1015700021037091220380912303909124030E9400
:1015800027090F900F900F90DF91CF911F910F912E
:10159000FF90EF90DF90CF90BF90AF900895E1E281
:1015A000F3E09181282F4381628188E0890F0C94B8
:1015B0003E0A81E00C94CF0AE1E2F3E09181282F0A
:1015C0004381628188EF890F0C943E0A81E00C947C
:1015D000DC0AE1E2F3E0628128E0620F08F46FEFD9
:1015E000282F438181810C943E0A81E00C94E90A02
:1015F000E1E2F3E0628128E0621B08F460E0282F5A
:10160000438181810C943E0A81E00C94F80AE1E266
:10161000F3E0438128E0420F08F44FEF282F628166
:1016200081810C943E0A81E00C94070BE1E2F3E027
:10163000438128E0421B08F440E0282F6281818129
:101640000C943E0A81E00C94160B20E00C943E0AA8
:10165000FF920F931F93CF93DF93EC01F12C0FEFC9
:1016600010E060910B01F616F0F4809109012F2D26
:1016700030E0280F311DC901880F991F280F391F2D
:101680002A5D3C4F70E0C8010E946A2D962F8C8124
:101690004091240360912303F99E800D11240E9440
:1016A0000209F394DECF0E9481099A818C8190FF18
:1016B00002C08F5F01C081508C83DF91CF911F9159
:1016C0000F91FF900895BF92CF92DF92EF92FF9219
:1016D0000F931F93CF93DF93FC01828180FF02C0A1
:1016E0000FEF01C001E010E080910B01181708F026
:1016F00040C080910901C12ED12CE601C80FD11D37
:10170000CE01880F991FC80FD91FCA5DDC4F1982FF
:1017100018821A8234E0E32EF12CB12C8091D3018F
:101720008B0D813114F08F7005C087FF03C090913D
:101730000B01890F082E000C990BC816D90691F4DD
:10174000809124038E9DA0018F9D500D11245595ED
:101750004795559547959E016091230380912203FB
:101760000E940209B00EF1E0EF1AF108B9F61F5F0E
:10177000BBCF0E9481098091D301013031F48111E6
:1017800002C080910B01815007C090E001966091EA
:101790000B0170E00E946A2D8093D301DF91CF91FD
:1017A0001F910F91FF90EF90DF90CF90BF90089521
:1017B000CF938091090190910A01891770F4E82F65
:1017C000F0E09F01220F331FE20FF31FEA5DFC4F91
:1017D0001182108212828F5FF0CFC0E060910B0106
:1017E000C617C0F5EC2FF0E070E0CF010E946A2D23
:1017F00020910901820F2091D201022E000C330B9F
:1018000090E0E217F307CCF020910601022E000CC5
:10181000330B2E173F078CF09C01220F331F820FD2
:10182000931F9C012A5D3C4F409124036091230348
:10183000809122030E9402090BC0FC01EE0FFF1FE2
:101840008E0F9F1FFC01EA5DFC4F118210821282F5
:10185000CF5FC4CF0E948109209105018091D20100
:10186000820F8093D20190910601920F909306010E
:1018700019165CF4082E000C990B40910B0150E0F6
:1018800041505109841795071CF0219520930501BB
:10189000CF9108958F929F92AF92BF92CF92DF9295
:1018A000EF92FF920F931F93CF93DF938C01FC0174
:1018B0004481C42FD0E09E01DE010E94AE2D9B0129
:1018C000AC010E94C42D6B017C01E0E2F0E0EC1B56
:1018D000FD0BA5E5B0E09B01AC010E94C42D4B01BE
:1018E0005C019F01DF010E94A62D9B01AC010E94BB
:1018F000CF2D9B01AC012C0D3D1D4E1D5F1DC50163
:10190000B4010E947E2DC22FD22F2A3228F4F3E098
:101910002F9F900111240DC025E530E02C1B3109CB
:10192000C901880F991F280F391F37FF02C02F5F89
:101930003F4F35952795C22FC095F12C85E5E82EB0
:10194000ED1A80910B01F816C8F4F1FC02C08E2D3F
:1019500001C08D2F909109012F2D30E0290F311DED
:10196000A901440F551F240F351F2A5D3C4F4C2FF2
:10197000609123030E940209F394E3CF0E9481093E
:10198000F8018481811102C091E003C0803219F412
:101990009FEF9093040190910401890FF8018483D3
:1019A000DF91CF911F910F91FF90EF90DF90CF903B
:1019B000BF90AF909F908F9008950F931F93CF93F8
:1019C000DF93EC0100E010E080910B01282F30E064
:1019D0000217130724F5909109019801290F311D71
:1019E000A901440F551F240F351F2A5D3C4F8695D2
:1019F00090E04C81081719071CF4442331F002C011
:101A0000411103C04091240301C040E060912303D1
:101A1000809122030E9402090F5F1F4FD5CF0E94C1
:101A200081098C8190E00196817099278C83DF91E8
:101A3000CF911F910F9108958F929F92AF92BF9275
:101A4000CF92DF92EF92FF920F931F93CF93DF938A
:101A5000FC01B280948081E0848300E015E05BE4C7
:101A6000A52E88248394EE24EA94F12C7BE4C72EDF
:101A7000D12C80910B01081708F08FC0C02FD0E047
:101A80001C9FF0011D9FF00D1124EC52FE4F911090
:101A900003C01382128267C02381222389F121505F
:101AA00023833481332319F09A2D921B01C0922F86
:101AB000809124031C9FF0011D9FF00D1124EC5216
:101AC000FE4F899FC0011124B6010E94562D6283EA
:101AD000211104C0332311F01482A38222E02B15BC
:101AE00008F441C01C9FF0011D9FF00D1124EC5221
:101AF000FE4F80912203808380912303818333C032
:101B00000E94232E8230914074F582E08B1530F4D0
:101B10000E94232EB7010E946A2D02C080912203E9
:101B20001C9FF0011D9FF00D1124EC52FE4F80838D
:101B300022E02B1558F40E94232E20912303269592
:101B4000622F70E00E946A2D820F02C080912303F1
:101B50001C9FF0011D9FF00D1124EC52FE4F81835C
:101B60001282A3828482809109019E01280F311D77
:101B7000C901880F991F280F391F2A5D3C4F1C9FF0
:101B8000F0011D9FF00D1124EC52FE4F4281618146
:101B900080810E9402090F5F6CCFDF91CF911F916E
:101BA0000F91FF90EF90DF90CF90BF90AF909F90FC
:101BB0008F900C948109E1E2F3E080818E7F808335
:101BC00060817181828193810E94270910922C0289
:101BD0002FEF80E792E0215080409040E1F700C075
:101BE00000000C948109E1E2F3E080818E7F808324
:101BF00010922C022FEF80E792E02150804090401D
:101C0000E1F700C000000C94810960912103669502
:101C100070E04BE050E08CE091E00E94332E892B85
:101C200019F481E080932C020E94CB21909325022D
:101C30008093240208959091210390FF35C0917004
:101C4000811102C0926006C08B3210F0946502C010
:101C5000880F982B90932103662351F06091210304
:101C60007091220380912303909124030E942709FD
:101C700060912103669570E04BE050E08CE091E0CC
:101C80000E94332E892B19F010922C0202C00E9460
:101C9000050E81E080932702409124036091230385
:101CA000809122030C94250B0895682F90912103B5
:101CB000969581E0890F8B3208F081E00C941B0E21
:101CC00081E00C94550E682F9091210396958FEF2B
:101CD000890F09F48AE20C941B0E81E00C94630EC8
:101CE00061E00C941B0EE1E2F3E08081816080836F
:101CF00086950C94700E8091210380FD0C94DB0D71
:101D00000C94730E60E00C941B0E80912A028111DA
:101D10002EC00E94A31F811104C00E945D200E945A
:101D200039090E9423096093210370932203809351
:101D30002303909324036E7F61F40E9439090E946B
:101D400023096093210370932203809323039093CC
:101D500024030E94100910922C028091210380FF1D
:101D600003C086950E94820E81E080932A02089526
:101D7000E1E2F3E080818160808386950C94820E9D
:101D800010922C0208950F931F93CF93DF938091AD
:101D90002C02882309F49CC080912B02E09121033E
:101DA000E695E81BE0932602823049F4F0E0E75420
:101DB000FB4FE491CE2FD0E00AED19E059C08630F8
:101DC00049F4F0E0EA54FB4FE491CE2FD0E00EEE60
:101DD00019E04EC0893051F4E695F0E0ED54FB4F28
:101DE000E491CE2FD0E008E21BE042C08F3051F4E6
:101DF000E695F0E0E055FB4FE491CE2FD0E003E60E
:101E00001BE036C0853149F4F0E0E355FB4FE49127
:101E1000CE2FD0E008ED1BE02BC08831D9F0833203
:101E200039F4EBEAF4E0C591D4910EEF19E020C04B
:101E30008432A9F08532C1F48E2F63E00E944A2DCE
:101E4000E92FF0E0E855FB4FE491CE2FD0E00CE114
:101E50001DE00EC0C8E2D0E00AE41CE009C0C4EFF7
:101E6000D1E00DED1CE004C0C0EDD7E00EEF18E0AE
:101E700080912702882389F0109227020E94CB21AB
:101E80009E0120953095820F931F90932502809399
:101E9000240210922902109228028091240290912B
:101EA00025020E94D7218C179D0790F0E091240213
:101EB000F0912502CE0FDF1FD0932502C09324029C
:101EC00084E292E0F801DF91CF911F910F91099484
:101ED000DF91CF911F910F910895882311F0FA019E
:101EE00001C0FB010994CF93DF93C82FD62F0E9426
:101EF00048098C1740F00E9448098D1720F4DF91A3
:101F0000CF910C94600E8C2FDF91CF910C94700EBA
:101F10000F931F93CF93FB01C281CC2309F463C0BD
:101F20008C010E94F21E8272F801E35CFC45E431F0
:101F3000F10508F059C0EA5AFF4F0C94A02D0E94F9
:101F40007B0E06C04DE65EE060E67EE00E946D0F0F
:101F5000C0E04AC040E65EE06DE67EE0F7CF46EEC8
:101F60005AE069ED7AE0F2CF49ED5AE066EE7AE0A8
:101F7000EDCF44E05BE065EF7AE0E8CF45EF5AE073
:101F800064E07BE0E3CF42E25BE063E17BE0DECF55
:101F900043E15BE062E27BE0D9CF4BE759E064E6E6
:101FA00079E0D4CF44E659E06BE779E0CFCF81E028
:101FB00017C065E082E010C068E086E00DC06EE00A
:101FC00089E00AC064E18FE007C067E185E104C0F1
:101FD00088E106C062E289E10E94730FB9CF83E213
:101FE0000E94700EB5CFC1E08C2FCF911F910F9141
:101FF00008950E94A31F811102C00E945D200E94CB
:10200000DE1F80935603282F26952695269530E0CF
:102010002630310524F087708862809356038091C2
:10202000560380FF04C086958695869501C080E0A2
:102030000C94081120915603822F869586958695DB
:10204000482F50E04530510554F48F5F982F990F79
:10205000990F990F822F8770892B80935603809157
:1020600056038160809356030E94E21F80915603BD
:102070008695869586950C94081180915603982F25
:10208000969596959695A1F0915E990F990F990F57
:102090008770892B80935603887F91E009F490E044
:1020A0008091560390FB80F9809356030E94E21FB3
:1020B000809156038695869586950C94081180919B
:1020C000560380FD13C0816080935603813019F45C
:1020D00089E080935603809156030E94E21F80910D
:1020E00056038695869586950C94081108958091DF
:1020F000560380FF08C08E7F809356030E94E21F24
:1021000080E00C94081108958091560380FD0C9492
:1021100077100C945F1090915603892F86958695C1
:1021200086958F5F8F719770863038F4880F880F8F
:10213000880F892B8093560302C090935603809199
:102140005603887F91E009F490E08091560390FB5C
:1021500080F9809356030E94E21F80915603869572
:10216000869586950C940811863008F085E090914C
:1021700056039770282F220F220F220F922B909335
:102180005603987F21E009F420E09091560320FB4C
:1021900090F9909356030C9408110E94B41080910A
:1021A00056030C94E21F9C01FB018281882349F1B4
:1021B0002E3BFCE53F07C9F040F42C3BECE53E0725
:1021C00069F02D3B3C4561F00895203C9CE53907C2
:1021D00091F070F0213C3C4589F0089585E001C004
:1021E00080E00E94CD1080E008950E943D10FBCF5A
:1021F0000E941A10F8CF0E948410F5CF0E948B1015
:10220000F2CF81E00895269A2E9808952E98089589
:10221000CF92DF92EF92FF92CF93C82F863050F487
:10222000811109C0809180008F7D809380000E9481
:10223000061106C0C5E08091800080628093800016
:102240002C2F30E0AFEFBFEF0E94AE2D25E030E045
:1022500040E050E00E947E2DB42FA32F922F8827BC
:10226000492F5A2F6B2F7727CA014C3724E1520789
:1022700028F469E070E00E94562D29C0DB01CA01F4
:102280008A50974DAF4FBF4F6627782F892F9A2FCF
:1022900025EF38E241E050E00E947E2D69017A018D
:1022A000CA01B9010E943A2D9B01AC01C701B601D8
:1022B0000E943A2DBB27A92F982F872F009721E046
:1022C000A207B10511F0BC0102C06FEF7FEF709360
:1022D0008B0060938A00CF91FF90EF90DF90CF90BA
:1022E000089508950E94031182E28093800089E19D
:1022F000809381008FEF9FEF9093870080938600FB
:102300000C94F90F6A9A2EB12B7F3EB134604FB70F
:10231000F894FC01CB01880F991F680F791F6E0F8D
:102320007F1FE617F70789F0819198E03EB900001A
:1023300000C087FF2EB9880F000000C000C000C099
:102340002EB900C09A9591F7ECCF4FBF8FE594E07E
:102350000197F1F700C000000895AF92BF92CF92AD
:10236000DF92EF92FF920F931F93CF93DF937C0145
:102370005B01C42FD22FFC0182818823F9F04093A6
:102380002F020E94CB2190932E0280932D0280E297
:102390008C0F883008F06EC0C77081E001C0880FD4
:1023A000CA95EAF7DF91CF911F910F91FF90EF90BF
:1023B000DF90CF90BF90AF900C94931680912F0236
:1023C000481335C080912D0290912E020E94D72192
:1023D0006C01B701C5010E94DC1BC816D90638F58F
:1023E00010E21D0FCD17B9F080E28C0F883040F459
:1023F000C77081E001C0880FCA95EAF70E949A165B
:10240000183058F581E09D2F977001C0880F9A957C
:10241000EAF70E949316802F0E948016183050F51C
:10242000D77081E001C0880FDA95EAF70AC080E230
:102430008C0F8830F8F4C77081E001C0880FCA950E
:10244000EAF7DF91CF911F910F91FF90EF90DF900E
:10245000CF90BF90AF900C949A16802FDF91CF91C0
:102460001F910F91FF90EF90DF90CF90BF90AF90B2
:102470000C948016DF91CF911F910F91FF90EF90F8
:10248000DF90CF90BF90AF9008950F939C01CB0148
:10249000243F4CE5340731F188F4293DFCE53F0742
:1024A000D9F02A3D4CE5340779F1283D3C45A9F5A2
:1024B00006E221EE41EE68ED7CE52BC0263FFCE50F
:1024C0003F07E1F0A8F0273F3C4539F507E225EE4C
:1024D00046EE67EF7CE51DC007E225EE45EE69EDAF
:1024E0007CE517C006E221EE40EE64EF7CE511C00A
:1024F00007E225EE44EE65EF7CE50BC006E221EE37
:1025000042EE66EF7CE505C008E221E045EE6AEDAB
:102510007CE50E94AD1180E008C0FC018281882327
:1025200019F010922F0201C081E00F910895CF930E
:10253000DF93EC01FB018281882309F41FC1C230C3
:10254000FCE5DF0708F41BC1C6319CE5D90738F06C
:102550009E012B5F3C452930310508F010C10E94D7
:10256000C01F90935C0380935B03C031ECE5DE07F2
:1025700009F4C3C008F041C0C8308CE5D80709F49D
:102580009AC0F0F4C430ECE5DE0709F487C068F4C3
:10259000C2308CE5D80709F477C0C330DC4509F0B8
:1025A000E3C080915B03826076C0C630ECE5DE0755
:1025B00009F46EC008F07BC080915B0388606BC03B
:1025C000CC308CE5D80709F485C068F4CA30ECE556
:1025D000DE0709F474C008F079C00E9423198091C5
:1025E0005B03806858C0CE308CE5D80709F476C00C
:1025F00008F07FC080915B038BC0CC3FECE5DE0729
:1026000009F44FC018F5C3318CE5D80709F47DC033
:1026100078F4C131ECE5DE0709F473C0C231DC4562
:1026200009F0A2C00E94231980915B038F7733C009
:10263000C5318CE5D80709F472C008F486C0CB3FD9
:10264000DC4509F091C080915C033EC0C115FDE5F9
:10265000DF0709F45FC058F4CE3F9CE5D90709F4C1
:1026600044C008F43FC080915C0382602DC0C2303A
:10267000FDE5DF0709F475C008F45DC0C330DD4532
:1026800009F072C080E06EC080915B03816003C07E
:1026900080915B03806180935B0366C080915B03E4
:1026A00011C080915C03826080935C035DC0809167
:1026B0005B038062F0CF80915B038064ECCF8091FC
:1026C0005B0388608460E7CF8160EECF80915B031D
:1026D0008E7FE1CF80915B038D7FDDCF80915B03A7
:1026E000877FD9CF80915C0318C080915C038D7F78
:1026F000DBCF80915B038F7ECECF80915B038F7D9C
:10270000CACF80915B038F7BC6CF80915B03877FAD
:102710008B7FC1CF80915C038D7F8E7FC5CF8091F1
:102720005B0382FB222720F991E0922790FB82F93C
:1027300090FB83F9B0CF80915C03982F90959170B6
:102740008E7F892B90FB81F9AFCF0E942319809156
:102750005B0387FB222720F991E0922790FB87F902
:102760009ACF81E00E945F2080915B0390915C038F
:102770000E94D11F0E94231980E001C081E0DF91F7
:10278000CF910895CF93DF9386319C4541F5EB01BE
:102790000E94F21E982F8A81209117013091180112
:1027A000882379F09A7A81E009F480E080933002FE
:1027B000911102C069E201C065E3C9010E94FA20DB
:1027C0000AC080913002811102C069E201C065E354
:1027D000C9010E9405210E94401F80E001C081E0E4
:1027E000DF91CF910895909336028093350208953A
:1027F000E0913502F0913602309721F00190F0819E
:10280000E02D099480E00895E0913502F0913602C0
:10281000309799F020912B01222359F020915B03EE
:1028200027FF07C0DC012C9111962C93119725E00E
:102830002C930280F381E02D09940895E0913502F4
:10284000F0913602309739F022E0DC012C930480BD
:10285000F581E02D099408952091330230913402DE
:102860002817390771F09093340280933302E09176
:102870003502F0913602309721F00680F781E02D85
:1028800009940895209131023091320228173907B6
:1028900071F09093320280933102E0913502F09111
:1028A0003602309721F00084F185E02D09940895D7
:1028B00085B7806885BF85B7806885BF089581E04A
:1028C00008950C945F1408950C9463140C9463148D
:1028D0000C9466140C9463140C946A140C94631492
:1028E0000E9458140E946E140C946C140E94C22111
:1028F0000E9471070E947C220E94F90F0E94850E9F
:102900000C9468147F928F929F92AF92BF92CF9255
:10291000DF92EF92FF920F931F93CF93DF93CDB788
:10292000DEB72A970FB6F894DEBF0FBECDBF0E9468
:1029300064140E9463140E94A3070E946114811111
:1029400011C08FEF89838A831B820E94CB21816013
:10295000782F9D838C8349815A816B818D810E9460
:102960003A154FC048E3A42E42E0B42E00E010E038
:10297000702E802F0E9443076C01F5018190919089
:102980005F01882699268114910431F40F5F1F4F4F
:102990000530110569F7D5CF8091DA0281FD0E94DB
:1029A0004C0780E0EE24E394F12C94012E213F218A
:1029B000232B09F18E837F82CE20DF2081E0CD287A
:1029C00009F480E088870E94CB218160782F9A8764
:1029D00089874E815F8168858A850E943A15000F3C
:1029E000111FF801E85CFD4F80819181E826F926EE
:1029F000F182E08206C08F5FEE0CFF1C8F30A9F6DB
:102A0000C5CF0E94C30E0E9471110E944D250E94E5
:102A1000F813909137028917C9F00E94F813809338
:102A200037022A960FB6F894DEBF0FBECDBFDF91F6
:102A3000CF911F910F91FF90EF90DF90CF90BF90BB
:102A4000AF909F908F907F900C942C052A960FB694
:102A5000F894DEBF0FBECDBFDF91CF911F910F91D4
:102A6000FF90EF90DF90CF90BF90AF909F908F90AE
:102A70007F900895CF93DF93CDB7DEB72B970FB636
:102A8000F894DEBF0FBECDBF4F83588769877A8722
:102A90008B87DE01119686E0FD0111928A95E9F798
:102AA00085E0FE01379601900D928A95E1F7498104
:102AB0005A816B817C818D819E810E94DF1B2B96C8
:102AC0000FB6F894DEBF0FBECDBFDF91CF91089552
:102AD000FC01808191810E94B31E0895CF938823C9
:102AE00009F4A4C0C82F8238C1F40E94F81381FDF4
:102AF0009DC069E380911701909118010E94FA200E
:102B00000E94401F2FEF81EE94E0215080409040C2
:102B1000E1F700C0000069E319C0833801F50E94A5
:102B2000F81380FD83C063E580911701909118012F
:102B30000E94FA200E94401F2FEF81EE94E0215066
:102B400080409040E1F700C0000063E580911701EC
:102B5000909118010E940521CF910C94401F843858
:102B6000C1F40E94F81382FD61C067E480911701EF
:102B7000909118010E94FA200E94401F2FEF81EED1
:102B800094E0215080409040E1F700C0000067E4ED
:102B9000DDCF8CEF8C0F813AD0F46C2F8091170130
:102BA000909118010E947A20882349F06C2F80911F
:102BB0001701909118010E9405210E94401F6C2F5F
:102BC00080911701909118010E94FA20C5CF80E2F0
:102BD0008C0F883048F4C77081E001C0880FCA9517
:102BE000EAF70E94F51EB8CFEBE5EC0FE33040F4B6
:102BF000F0E0E653FE4F808190E0CF910C942C14CE
:102C0000E8E5EC0FE73150F4F0E0EE0FFF1FE4567B
:102C1000FE4F80819181CF910C944214C03F30F0DF
:102C20008C2F0E944224CF910C942F25CF91089590
:102C3000882309F464C0823879F40E94F81381FF74
:102C40005EC069E380911701909118010E94FA20FB
:102C50000E94401F69E310C08338B1F40E94F8134A
:102C600080FF4DC063E580911701909118010E948B
:102C7000FA200E94401F63E580911701909118018E
:102C80000E9405210C94401F843879F40E94F813A7
:102C900082FF35C067E480911701909118010E946E
:102CA000FA200E94401F67E4E7CF9CEF980F913A0B
:102CB00010F4682FE1CF90E2980F983050F48770AD
:102CC00091E001C0990F8A95EAF7892F0E94FB1EB7
:102CD000D9CF9BE5980F933020F480E090E00C94DE
:102CE0002C1498E5980F973120F480E090E00C9434
:102CF0004214803F20F00E94AA240C942F250895AE
:102D0000CF93C82F0E946E15C93349F42FEF87EE79
:102D100093E0215080409040E1F700C000008C2FEC
:102D2000CF910C941816882321F00E94F51E0C9464
:102D3000401F0895882321F00E94FB1E0C94401F21
:102D40000895CF92DF92EF92FF920F931F93CF934C
:102D5000DF937C01062FC72FFC01158112951F7090
:102D6000D281D1110E94121F0E94EB1E882399F07C
:102D7000DD2389F08C2F807F803421F080E2800F6A
:102D8000883048F082E00E948A1F0E94EB1E91E08A
:102D9000D82ED92601C0D12CCC2EC2948FE0C822C7
:102DA0008C2D90E0FC01E659FF4F0C94A02D8C2F48
:102DB000807FCF70882311F0C295C07FDD2399F00A
:102DC000CC2309F48DC180E2800F883010F001110E
:102DD00004C08C2F0E94F51E03C08C2F0E94051F7B
:102DE0000E94401F7DC1802F0E941816CC2309F439
:102DF0009CC180E2800F883010F0011104C08C2F3C
:102E00000E94FB1E03C08C2F0E940B1F0E94401FBC
:102E10008CC18C2F807FCF70803211F0C295C07F23
:102E2000002319F00130C9F022C0DD2371F0112315
:102E300041F0113031F40E94251F8C2B0E942D1F70
:102E400074C10E94251F8C2B1DC0112319F0113055
:102E500009F46BC10E94361F25C0DD2321F0163016
:102E600008F063C10EC0153008F05FC11BC0DD2340
:102E700061F0112331F0F701858180FF31C18F703E
:102E800085838C2F0E94931650C1112359F009336A
:102E900009F037C1FFEF27EE83E0F150204080407A
:102EA000E1F72DC18C2F0E949A163FC18C2F869579
:102EB0008695837019F0813061F037C1DD2321F0F0
:102EC000802F9C2F937002C080E090E00E942C1411
:102ED00034C1DD2321F0802F9C2F937002C080E04D
:102EE00090E00E94421429C1802FDD2319F00E9436
:102EF000422402C00E94AA240E942F251EC18C2FAA
:102F0000837009F045C0D11114C1402F42954695F8
:102F10004770440F440F602F6F70862F90E0A0E041
:102F2000B0E0042E04C0880F991FAA1FBB1F0A948B
:102F3000D2F704FF10C00FE010E020E030E004C042
:102F4000000F111F221F331F4A95D2F700951095CD
:102F50002095309503C000E010E09801C695C69515
:102F6000C370BC01CD01602B712B822B932BC2301F
:102F700049F058F4C13019F00E94301DDAC00E94A7
:102F80001E1DD7C00E94421DD4C00E941C1DD1C06E
:102F9000DD2319F08C2F817001C08695882309F4F8
:102FA000C8C0402F429546954770440F440F602F8C
:102FB0006F70862F90E0A0E0B0E0042E04C0880F70
:102FC000991FAA1FBB1F0A94D2F704FF10C00FE07D
:102FD00010E020E030E004C0000F111F221F331F5B
:102FE0004A95D2F7009510952095309503C000E0E2
:102FF00010E09801C695C695C370BC01CD01602B49
:10300000712B822B932BC23049F058F4C13019F048
:103010000E94F51D8EC00E94E31D8BC00E94071EFA
:1030200088C00E94561D85C0CF70DD2339F08C2FDB
:103030000E947C1D802F0E9493167BC0802F0E94CF
:103040009A168C2F0E949D1D74C0023F01F128F436
:10305000003F41F0013FA1F03FC0033FF9F0043FC2
:1030600039F13AC0DD2341F0153008F05EC08C2FF5
:103070008F710E94C21D59C0163008F056C0F7CF9C
:10308000DD2339F08C2F8F710E947C1D4EC0DD2313
:10309000C9F38C2F8F710E949D1D47C0DD2329F03D
:1030A0008C2F8F710E94671D40C00E94621D3DC021
:1030B000DD2349F0CF718C2F0E947C1D63E08C2FA3
:1030C0000E94751F32C081E00E948A1F123068F191
:1030D00082E00E948A1F29C0DD2331F0112391F282
:1030E000802F0E946E1521C0112399F2093349F4F3
:1030F0009FEFE7EEF3E09150E040F040E1F700C0D1
:103100000000802F0E94181610C04C2F4F70602FA7
:10311000C7010E9435050E948D1C0FC04C2F4F70B7
:10312000602FC7010E94380508C088EF8C0D8430DD
:1031300020F40E94F8130E942C05DD20C9F00E94A3
:10314000E71E80FD15C0F70112820E94E11E0E9459
:103150007C1DC7010E94D9180E94E11EDF91CF910A
:103160001F910F91FF90EF90DF90CF900C949D1DD9
:10317000DF91CF911F910F91FF90EF90DF90CF9053
:1031800008950F931F93CF93DF93EC0168817981AA
:103190008A810E94BE1E8C010E94191E0E940A1D77
:1031A000B801CE010E94A116DF91CF911F910F911E
:1031B0000895CF93DF93EC01988189812B813C8125
:1031C000232B31F08F3F31F481E09F3F19F403C08E
:1031D00081E001C080E080FD19C0CE010E94CE04D4
:1031E00081110CC00E94EB1E882381F08A81882304
:1031F00069F082E0DF91CF910C948A1FCE010E948A
:10320000C118CE01DF91CF910C94A504DF91CF912D
:1032100008950E94121F0E94221F0E94401F0E94B8
:1032200060260E942F2580E090E00E942C1480E010
:1032300090E00C94421480911701909118010E9423
:1032400010210C9409190E94021F0C941B19E92FDC
:10325000E295EF704E2F50E0FA013297EE30F10513
:10326000B0F4E658FF4F0C94A02D803F91F018F475
:10327000883E68F40EC0843F51F40BC0883E48F08D
:10328000813F29F406C093FB882780F9089580E0E8
:10329000089581E008950E94B31E0E9427190895A1
:1032A000CF93DF9300D000D01F92CDB7DEB70F9041
:1032B0000F900F900F900F90DF91CF910895CF93C3
:1032C000DF9300D000D000D0CDB7DEB726960FB682
:1032D000F894DEBF0FBECDBFDF91CF9108951F934D
:1032E000CF93DF93C091430216E080914402C81748
:1032F00099F0D0E01C9FF0011D9FF00D1124EB5BB5
:10330000FD4F4081518162817381848195810E944A
:103310005F192196C770E9CFDF91CF911F91089572
:103320004091750250917602609177027091780217
:103330008091790290917A020C945F190F931F93F8
:10334000CF93DF9380917A0282958F7009F05DC0F0
:1033500080917702882309F458C08091430210912C
:1033600044026091750270917602C0917802D0910A
:10337000790291E06F3F09F090E0292F06E0811774
:1033800009F443C0209721F07F3F21F030E003C0D3
:1033900031E001C0322F90E030FD34C0089FF001D1
:1033A000099FF00D1124DF01AB5BBD4F11963C91DD
:1033B0001197371327C03C91361324C012963C91C5
:1033C000129731111FC013964D915C9114974C1BAD
:1033D0005D0B483C5105B0F480917A028F7080619A
:1033E00080937A02E65BFD4F80818F7080618083DD
:1033F00085E792E00E94D918DF91CF911F910F913C
:103400000C946F1901968770BACFDF91CF911F91FD
:103410000F9108959F92AF92BF92CF92DF92EF9259
:10342000FF920F931F93CF93DF93CDB7DEB76197D2
:103430000FB6F894DEBF0FBECDBF8C0185E0F8015A
:10344000DE011D9601900D928A95E1F7F801408109
:103450005181E2809091750260917602209178020C
:10346000309179022115310531F06F3F31F481E05F
:103470009F3F19F403C081E001C080E0F82FF17094
:103480009F2E80FD46C1F801A380B48085E7C82E39
:1034900082E0D82EF0907702F501E21BF30BFF20BB
:1034A00009F4DFC080917A02E83CF10508F09BC086
:1034B000282F207F09F052C0561313C0491311C0A2
:1034C000FE2CE1100EC08F70806180937A020E9402
:1034D0009019C6010E94D91880917A02F80185835B
:1034E00058C1AB2831F05F3F31F481E04F3F19F410
:1034F00003C081E001C080E080FD03C081E08E2533
:1035000002C080E090E0F82FF170FF2E80FF1CC019
:10351000809143022091440236E0821709F417C1DA
:1035200090E0389FF001399FF00D1124EB5BFD4FC7
:103530006181561306C06081461303C06281E612A2
:1035400003C001968770E9CFFE2CEE2009F421C15B
:1035500080917A02816080937A025AC0561306C025
:10356000491304C0E11002C0F8019FC04D875E8777
:103570008D859E850E944B19882379F1EE2069F193
:1035800020917A02822F82958F7090E0029774F0DA
:10359000809175029091760298878F831986BB86F9
:1035A000AA862C87CE0107960E94D91886E0F801DA
:1035B000A5E7B2E001900D928A95E1F70E949E196D
:1035C0000E9490190DC0561729F14D875E878D8591
:1035D0009E850E944B1981112CC0C8010E94D918E8
:1035E000FF24F394D6C0282F207F69F77A2DB98A5B
:1035F000A88A6E2D89890E94501985E792E00E9461
:10360000D91886E0F60111928A95E9F70E9490197F
:10361000F12CBFC04913D9CFE110D7CFF801858372
:10362000C8010E94D91886E0F60111928A95E9F73F
:10363000B0C0EE2091F220917A02822F82958F7095
:1036400090E002970CF4B2CF8091750290917602CF
:103650009A8389831B82BD82AC822E83CE01019620
:10366000A3CFE83CF10508F047C0FE2CEE2009F49A
:10367000B4CF561330C049132EC020917A0220FDDA
:1036800021C0822F82958F70482F50E0411551053F
:10369000C9F0F80125834F30510541F08F5F982F15
:1036A0009295907F822F8F70892B8583C8010E940D
:1036B000D91886E0F801A5E7B2E001900D928A954D
:1036C000E1F742C086E0F801A5E7B2E001900D9273
:1036D0008A95E1F75EC04D875E878D859E850E9445
:1036E0004B19811163CF80917A02816080937A02B5
:1036F000C8010E94D9184DC07A2DB98AA88A6E2DAA
:1037000089890E94501986E0F60111928A95E9F79D
:103710001BC0EE2009F461CF4D875E878D859E85A5
:103720000E944B19F82E882309F457CF86E0F80140
:10373000A5E7B2E001900D928A95E1F785E792E066
:103740000E9468150E949E190E94901922C04D8700
:103750005E878D859E850E94B31E292F22952F702E
:10376000223028F49F7039F0811105C00BC024303D
:1037700028F49F7049F4805E883020F0C8010E94D0
:10378000D9189F2CF92C05C0F8019581907F99F7E5
:10379000F9CF8F2D61960FB6F894DEBF0FBECDBF67
:1037A000DF91CF911F910F91FF90EF90DF90CF901D
:1037B000BF90AF909F90089588EC90E008951F937C
:1037C000CF93DF93CDB7DEB72C970FB6F894DEBF5B
:1037D0000FBECDBF4F83588769877A878B879C87B9
:1037E000CE0107960E940A1A8823D1F09F8188850E
:1037F0002A853B85232B31F08F3F31F481E09F3FB9
:1038000019F403C081E001C080E080FD47C04F8112
:10381000588569857A858B859C850E945F193EC095
:1038200086E0FE013796DE01119601900D928A9591
:10383000E1F7FF81E8856A857B856115710531F0C7
:10384000EF3F31F481E0FF3F19F403C081E001C094
:1038500080E080FD23C02091440230E0C901019640
:10386000877099274091430250E084179507F1F142
:10387000F983EA837D836C8396E0929FD001939FC6
:10388000B00D1124AB5BBD4FFE01319601900D923E
:103890009A95E1F7809344020E946F1916E0809197
:1038A000430290914402891771F1189FC0011124BD
:1038B0008B5B9D4F0E940A1A882329F1E0914302F5
:1038C0001E9FF0011124EB5BFD4F4081518162810D
:1038D0007381848195810E945F198091430290E0F9
:1038E00001968770992780934302D9CF0E942319AC
:1038F0001092440210924302E5E7F2E086E0DF0115
:103900001D928A95E9F72C960FB6F894DEBF0FBE8C
:10391000CDBFDF91CF911F910895EF92FF920F934A
:103920001F93CF93DF938C01892B09F46CC0F12C8A
:10393000EE24E394E8012196F8018491843740F461
:10394000843008F051C0813081F0823019F15BC0C1
:10395000853709F444C0A8F19CE7980F903708F028
:1039600052C08F770E94181641C00E5F1F4FFE0194
:10397000849190E2980F983050F48770FE2D01C02A
:10398000FF0F8A95EAF78F2F0E94151F14C00E941F
:103990006E152DC00E5F1F4FFE01849190E2980FAF
:1039A000983060F48770FE2D01C0FF0F8A95EAF70A
:1039B0008F2F0E941B1F0E94401F19C00E941816C3
:1039C00016C00E5F1F4FFE01C491CC2381F08FE91A
:1039D0009FE00197F1F700C00000C150F6CF0E5FE5
:1039E0001F4FFE01F49003C00E946E158E018F2DB3
:1039F000882309F49FCFEFE9FFE03197F1F700C08A
:103A000000008150F5CFDF91CF911F910F91FF9072
:103A1000EF900895089508950C940B1D0C940C1DBF
:103A20000E940E1D6093B1027093B2028093B302A4
:103A30009093B4020C9409190C94101D0F931F93CA
:103A40000091B1021091B2022091B3023091B40200
:103A5000602B712B822B932B1F910F910C94101DB7
:103A60000F931F930091B1021091B2022091B30203
:103A70003091B40260237123822393231F910F910D
:103A80000C94101D0F931F930091B1021091B2027C
:103A90002091B3023091B4026027712782279327C7
:103AA0001F910F910C94101D0C940B1D0E94541D1E
:103AB0006093AD027093AE028093AF029093B00218
:103AC0000C94091960E070E0CB010C94561D0F9323
:103AD0001F9341E050E060E070E08A019B0104C068
:103AE000000F111F221F331F8A95D2F7C901B80199
:103AF0001F910F910C94561D0F931F9341E050E0BE
:103B000060E070E004C0440F551F661F771F8A9560
:103B1000D2F78091AD029091AE02A091AF02B09128
:103B2000B0028A019B01082B192B2A2B3B2BC901C0
:103B3000B8011F910F910C94561D0F931F9341E0F4
:103B400050E060E070E004C0440F551F661F771F0F
:103B50008A95D2F740955095609570958091AD0209
:103B60009091AE02A091AF02B091B0028A019B0188
:103B7000082319232A233B23C901B8011F910F9160
:103B80000C94561D0F931F9341E050E060E070E0ED
:103B900004C0440F551F661F771F8A95D2F7809186
:103BA000AD029091AE02A091AF02B091B0028A0135
:103BB0009B01082719272A273B27C901B8011F9114
:103BC0000F910C94561D0F931F930091AD0210910D
:103BD000AE022091AF023091B002602B712B822B8C
:103BE000932B1F910F910C94561D0F931F930091CF
:103BF000AD021091AE022091AF023091B00260236D
:103C00007123822393231F910F910C94561D0F93C0
:103C10001F930091AD021091AE022091AF0230913E
:103C2000B00260277127822793271F910F910C9470
:103C3000561D08952FE0929F800D1124E82FE695E0
:103C4000E695E695877051E001C0550F8A95EAF731
:103C500085E0E89FF0011124E558FD4F20E030E0B9
:103C600070E04081CB01022E02C0969587950A94A0
:103C7000E2F78170819584278523842781932F5FC4
:103C80003F4F2530310569F708952FE0929F800D51
:103C90001124682F669566956695982F977085E034
:103CA000689FB001112440E050E080E0FB01E40F88
:103CB000F51FE558FD4F208130E0092E02C03695F2
:103CC00027950A94E2F721703327042E01C0220FB2
:103CD0000A94EAF7822B4F5F5F4F4530510531F769
:103CE0000895BF92CF92DF92EF92FF920F931F93AE
:103CF000CF93DF938C01C090AD02D090AE02E090E4
:103D0000AF02F090B0028091B1029091B202A09106
:103D1000B302B091B402C82AD92AEA2AFB2ACFE119
:103D2000D0E0D701C6010C2E04C0B695A795979593
:103D300087950A94D2F780FD04C0219790F7B12CA3
:103D400007C0BC2EB8018C2F0E9454050197A9F31F
:103D50008B2DDF91CF911F910F91FF90EF90DF900E
:103D6000CF90BF900895CF93DF93EC010E94711E16
:103D7000BE010E945405DF91CF9108951F93CF9308
:103D8000DF93EB0190914202992321F0CB010E9435
:103D9000B31E13C0882349F0CB010E94711E182F57
:103DA000682FCE010E941A1E04C0CB010E94451E3E
:103DB000182FBE01812F0E945405DF91CF911F91D2
:103DC00008958091B5028595859585950895809192
:103DD000B502877008959091B502977081E009F45B
:103DE00080E008958091D90208959091D902892B9D
:103DF0008093D902089580959091D9028923809368
:103E0000D90208951092D90208959091D802892B71
:103E10008093D802089580959091D8028923809349
:103E2000D80208951092D80208959091D702892B54
:103E30008093D702089580959091D702892380932B
:103E4000D70208951092D70208958091B60208957E
:103E500008950C94281F0C94291F9091B60298176E
:103E600021F08093B6020C942B1F08958091B60226
:103E7000882329F01092B60280E00C942B1F08953D
:103E8000E0911701F09118018091D9028083E091AF
:103E90001701F091180190818091D802892B8083BD
:103EA000E0911701F091180190818091D702892B40
:103EB00080838091B602882381F0E0911701F09110
:103EC00018019081892B80838091170190911801AE
:103ED0000E94642081110E94361F809117019091E9
:103EE00018010C9404140C94281F98E0899F9001E9
:103EF0001124262B2093B5020E947C1D8091B502CF
:103F00008595859585950C94731F1092B50280E078
:103F10000C94731F2091B502809582238093B50283
:103F2000982F977079F430E0482F082E000C550B2D
:103F30002417350739F08595859585950E949D1D37
:103F40000C94851F089580E090E00E944E2E21E0A1
:103F50008C3E9E4F09F020E0822F089582E090E091
:103F60000C94402E682F82E090E00C94542E83E055
:103F700090E00C94402E682F83E090E00C94542E37
:103F8000CF9384E090E00E94402EC82F81E290E021
:103F90000E94402E2C2F30E0A901582BCA01CF914E
:103FA0000895CF93C92F682F84E090E00E94542E8B
:103FB0006C2F81E290E0CF910C94542E86E090E03B
:103FC0000C94402E682F86E090E00C94542EAB01A8
:103FD000BC018FE090E00C94662EAB01BC0183E144
:103FE00090E00C94662E60E070E0CB010C94ED1F25
:103FF00060E070E0CB010E94E71F0C94F31F6CEEB1
:104000007EEF80E090E00E94722E60E082E090E01F
:104010000E94542E60E083E090E00E94542E1092A3
:10402000B1021092B2021092B3021092B40260E098
:1040300084E090E00E94542E60E081E290E00E94D3
:10404000542E60E085E090E00E94542E60E086E00F
:1040500090E00E94542E6FEF87E090E00E94542E73
:1040600040E050E0BA0188E090E00E94662E60E0F7
:104070008DE090E00E94542E40E050E0BA0188E1CB
:1040800090E00E94662E60E087E190E00E94542E4E
:1040900040E050E0BA018CE190E00E94662E60E0C2
:1040A00080E290E00E94542E40E050E0BA0188E1A6
:1040B00090E00E94662E0C94F81F0C94FF1F682F4E
:1040C0008EE090E00C94542EFC01329680912B01EE
:1040D000882331F080915B0387FF02C09EE101C01D
:1040E00096E080E0915028F021912223D9F38F5F50
:1040F000F9CF0895662351F120912B012223E9F095
:1041000020915B0327FF19C0462F4695469546959B
:104110004E31E0F4677021E030E002C0220F331F1F
:104120006A95E2F7FC01E40FF11D828190E02823FB
:10413000392381E0232B69F409C0FC0132960896EB
:104140002191621729F0E817F907D1F780E0089567
:1041500081E008959C01FC0132969FEF80E041913F
:10416000461789F09F3F19F4411101C0982F8F5FC6
:104170008630A9F79F3F39F0F901E90FF11D97FD4E
:10418000FA956283089508959C012A5F3F4FFC01D0
:104190004281461301C01282019682179307B9F734
:1041A0000895262F2695269526952E3168F4FC0134
:1041B000E20FF11D677021E030E001C0220F6A9527
:1041C000EAF78281282B22830895262F26952695AB
:1041D00026952E3170F4FC01E20FF11D677021E08D
:1041E00030E001C0220F6A95EAF7209582812823EA
:1041F0002283089520912B01222329F020915B0333
:1042000027FD0C94D1200C94AA2020912B0122236D
:1042100029F020915B0327FD0C94E5200C94C42029
:1042200020912B01FC013296222331F080915B0317
:1042300087FF02C08EE101C086E0DF011D928A95F2
:10424000E9F7089508950C9422210C942221CF932C
:104250000E9425210E94A3070E942321C0E08C2FE9
:104260000E944307892B29F4CF5FC530C1F780E056
:1042700001C081E0CF9108950C9422210C943C213F
:104280000E943E2180916103843009F43CC0109269
:10429000DB0220E488E190E00FB6F894A8958093C3
:1042A00060000FBE2093600080E00E94081180E053
:1042B0000E942C050E94C00E8091DC0281110AC070
:1042C00081E08093DC028091210381708093DD0284
:1042D0000E94F30D0E943E2183B7817F846083BFDB
:1042E00083B7816083BF7894889583B78E7F83BFBF
:1042F0000FB6F894A8958091600088618093600063
:10430000109260000FBE08950C9422210E94231980
:104310000E94F90F0E94F8130E942C051092DC02F3
:104320008091DD0281110E94B80E0E94050E0C944E
:1043300084211F920F920FB60F9211248F939F9397
:10434000AF93BF938091DB02811113C0809157031B
:1043500090915803A0915903B0915A034196A11D21
:10436000B11D8093570390935803A0935903B093C2
:104370005A03BF91AF919F918F910F900FBE0F90F5
:104380001F90189582E084BD93E095BD9AEF97BD8C
:1043900080936E0008952FB7F89480915703909101
:1043A0005803A0915903B0915A032FBF08959C015F
:1043B0004FB7F8948091570390915803A0915903F7
:1043C000B0915A034FBF821B930B089578941F92AC
:1043D0000F920FB60F9211248F939F93AF93BF93B9
:1043E0008091570390915803A0915903B0915A03BB
:1043F0000196A11DB11D8093570390935803A0937C
:104400005903B0935A03BF91AF919F918F910F9031
:104410000FBE0F901F90189581E08093E00080E21E
:104420008093D8001092C9008FE19EE40197F1F7C4
:1044300000C0000087E090EBDC0180936A0390935A
:104440006B03A0936C03B0936D039CE088E10FB6FF
:10445000F894A895809360000FBE90936000FFCF02
:10446000AF92BF92CF92DF92EF92FF920F931F9382
:10447000CF93C0E0CC24C394D12CE82EF12C8C2F08
:104480000E9443075C0100E010E0C601002E02C05C
:10449000880F991F0A94E2F78A219B21892B31F416
:1044A0000F5F1F4F0F30110581F70AC0602F7C2F5F
:1044B00080E00E943905E816F90691F781E004C012
:1044C000CF5FC530E1F680E0CF911F910F91FF9053
:1044D000EF90DF90CF90BF90AF900895CF93C82F0B
:1044E0008CE20E943022882321F08C2FCF910C94F3
:1044F000302280E0CF910895CF930E94A31F8111B5
:1045000002C00E945D20C5E6C15049F00E94A30789
:104510008FE39CE90197F1F700C00000F5CF89E235
:104520000E946E2281112AC18AE20E946E228111AC
:104530000E945D2085E00E946E2281110E940C2263
:104540000E94AE1F8093DA0287E00E946E228823C9
:10455000A9F18BE10E946E22882351F08091DA024A
:1045600081FB222720F991E0922790FB81F90EC070
:104570008EE00E946E22882361F08091DA0282FB35
:10458000222720F991E0922790FB82F98093DA02AA
:1045900015C080E10E946E229091DA02882341F0DA
:1045A00093FB222720F981E0822780FB93F904C046
:1045B000892F809580FB90F99093DA028091DA023E
:1045C0000E94B21F0E94C01F90935C0380935B0304
:1045D00080EE0E946E22882341F080915B03982F29
:1045E000909590FB80F980935B0389E30E946E2293
:1045F000882359F080915B0381FB222720F991E009
:10460000922790FB81F980935B0382EE0E946E22D9
:10461000882359F080915B0382FB222720F991E0E7
:10462000922790FB82F980935B0386EE0E946E22B4
:10463000882359F080915B0383FB222720F991E0C6
:10464000922790FB83F980935B0383EE0E946E2296
:10465000882359F080915B0384FB222720F991E0A5
:10466000922790FB84F980935B0385E30E946E227E
:10467000882359F080915B0385FB222720F991E084
:10468000922790FB85F980935B0381E30E946E2261
:10469000882359F080915B0386FB222720F991E063
:1046A000922790FB86F980935B0381E10E946E2242
:1046B000882359F080915B0387FB222720F991E042
:1046C000922790FB87F980935B0380915B03909125
:1046D0005C030E94D11F87E20E946E22C82F8EE1E8
:1046E0000E946E228111C2608FE10E946E228111B0
:1046F000C46080E20E946E228111C86081E20E9443
:104700006E228111C06182E20E946E228111C0621C
:1047100083E20E946E228111C06484E20E946E22B4
:10472000882311F0C06802C0CC2329F08C2F0E948E
:10473000BB1F6C2F03C00E94B71F682F70E080E082
:1047400090E00E941C1D6091AD027091AE028091BC
:10475000AF029091B0020E94541D8FE00E946E2221
:10476000882319F081E00E945F2085E10E946E227B
:10477000882321F080E0CF910C945F20CF910895A1
:104780008091E40280FF0BC060911E0185E0689F6C
:10479000B001112475956795759567952BC081FFBC
:1047A00009C060911E0185E0689FB00111247595D4
:1047B000679520C082FF07C060911E0185E0689F59
:1047C000B001112417C09091E3029923D1F06091B8
:1047D0001D01961788F720911E0185E0289F900102
:1047E0001124929FA001939F500D112470E0CA01E3
:1047F0000E946A2D6038710540F46115710519F445
:1048000006C065E070E0862F08958FE7089581E087
:1048100008958091E40280FF08C060911A0170E061
:10482000759567957595679521C081FF06C0609164
:104830001A0170E07595679519C082FF04C06091F8
:104840001A0170E010C09091E202992399F06091F2
:1048500019019617A0F780911A01899FC0011124B0
:1048600070E00E946A2D6038710540F46115710591
:1048700019F406C061E070E0862F08958FE708956F
:1048800081E00895803F21F40E94C023819504C0F7
:10489000813F29F40E94C0238093E8020895823F5B
:1048A00021F40E94C023819504C0833F29F40E9413
:1048B000C0238093E7020895893F19F40E940924D8
:1048C00005C08A3F31F40E94092481958093E90252
:1048D00008958B3F21F40E940924819504C08C3FE8
:1048E00029F40E9409248093EA020895843F21F468
:1048F0008091E602816017C0853F21F48091E60235
:10490000826011C0863F21F48091E60284600BC072
:10491000873F21F48091E602886005C0883F31F42A
:104920008091E60280618093E60208958D3F21F434
:104930008091E40281600BC08E3F21F48091E402FB
:10494000826005C08F3F29F48091E40284608093E7
:10495000E4020895803F39F48091E80287FF6AC03D
:104960001092E80267C0813F29F48091E80218168E
:10497000BCF360C09091E702823F29F497FF5AC0D0
:104980001092E70257C0833F19F41916CCF352C0B6
:104990009091E902893F31F419160CF04BC0109246
:1049A000E90248C08A3F19F497FF44C0F8CF8B3F13
:1049B00039F48091EA0287FF3DC01092EA023AC0C2
:1049C0008C3F29F48091EA021816BCF333C0843F6F
:1049D00021F48091E6028E7F17C0853F21F48091FB
:1049E000E6028D7F11C0863F21F48091E6028B7F25
:1049F0000BC0873F21F48091E602877F05C0883F86
:104A000031F48091E6028F7E8093E60213C08D3FE1
:104A100021F48091E4028E7F0BC08E3F21F48091BF
:104A2000E4028D7F05C08F3F29F48091E4028B7FE3
:104A30008093E4028091E702811106C08091E80230
:104A4000811102C01092E3028091E902811106C037
:104A50008091EA02811102C01092E20208950E9440
:104A6000CB212091E702211104C02091E8022223EA
:104A700021F09093E1028093E0022091E90221115C
:104A800004C02091EA02222321F09093DF02809358
:104A9000DE0285EE92E00C941E14EF92FF920F93CB
:104AA0001F93CF93DF9300D000D000D0CDB7DEB7F7
:104AB00086E0E5EEF2E0DE01119601900D928A9516
:104AC000E1F7E090E702F090E8020091E90210912E
:104AD000EA021092E7021092E8021092E9021092A4
:104AE000EA02E11003C0FF2009F45DC08091E002FA
:104AF0009091E1020E94D721AC019091E3029923A9
:104B000039F020911F0130E02417350758F04BC0D1
:104B1000209120018AE0289F900111242417350755
:104B200018F041C09F3F19F09F5F9093E302EE2081
:104B300061F00E94C0231E1414F09FEF01C091E0A9
:104B4000989F902D11249093E702FF2061F00E941E
:104B5000C0231F1414F09FEF01C091E0989F902D87
:104B600011249093E8023091E7023323E1F0209181
:104B7000E8022223C1F045EB3403C001112499233C
:104B800019F09093E70203C081E08093E70235EBD0
:104B90002303C0011124992319F09093E80203C064
:104BA00081E08093E802011103C0112309F45DC084
:104BB0008091DE029091DF020E94D721AC0190919A
:104BC000E202992339F020911B0130E024173507C8
:104BD00058F04BC020911C018AE0289F90011124BD
:104BE0002417350718F041C09F3F19F09F5F90933D
:104BF000E202002361F00E940924101614F09FEFD6
:104C000001C091E0989F902D11249093E902112307
:104C100061F00E940924111614F09FEF01C091E089
:104C2000989F902D11249093EA023091E90233234A
:104C3000E1F02091EA022223C1F045EB3403C001E8
:104C40001124992319F09093E90203C081E0809325
:104C5000E90235EB2303C0011124992319F0909345
:104C6000EA0203C081E08093EA028091E7028111A9
:104C70000BC08091E802811107C08091E902811187
:104C800003C08091EA0281110E942F25EB82FC82F1
:104C90000D831E8386E0FE013196A5EEB2E0019001
:104CA0000D928A95E1F726960FB6F894DEBF0FBEF7
:104CB000CDBFDF91CF911F910F91FF90EF9008959D
:104CC000E5EEF2E086E0DF011D928A95E9F71092A9
:104CD000E3021092E2021092E402089580910B0325
:104CE0000895CF93DF9300D01F92CDB7DEB7909198
:104CF0006103943019F589837B836A8382E0809312
:104D0000E9008FEF9091E800815095FD06C095ED88
:104D10009A95F1F700008111F5CF8091E80085FFA9
:104D20000DC040E050E063E070E0CE0101960E94CB
:104D30009C288091E8008E778093E8000F900F9078
:104D40000F90DF91CF910895BC0184E00C947126FF
:104D5000BC0183E00C94712622E02093E9002FEF40
:104D60003091E800215035FD06C035ED3A95F1F758
:104D700000002111F5CF2091E80025FF0BC040E095
:104D800050E066E070E00E949C288091E8008E77F9
:104D90008093E8000895CF93DF9320912B01222385
:104DA00039F020915B0327FF03C060E222E002C0DC
:104DB00068E021E02093E9002FEF3091E8002150D6
:104DC00035FD06C035ED3A95F1F700002111F5CF1C
:104DD0002091E80025FF1DC0EC0180912B0181117D
:104DE00005C040E050E068E070E003C070E040E0E3
:104DF00050E0CE010E949C288091E8008E7780933D
:104E0000E80080E2FE01ABEEB2E001900D928A95DF
:104E1000E1F7DF91CF91089580916003811109C07E
:104E20000E942D2A0E948A2A8091E2008460809349
:104E3000E2000895109260030895089508950C9477
:104E4000862142E061EC81E00E94A62942E261EC09
:104E500082E00C94A62980916303833009F460C03A
:104E600030F4813071F0823009F499C008958A30AD
:104E700009F485C08B3009F46BC0893009F0A7C0F4
:104E800020C080916203813A09F0A1C08091E800BE
:104E9000877F8093E8008091660390916703892B58
:104EA00021F460E28BEE92E003C060E080E090E0ED
:104EB00070E00E94E7288091E8008B778093E800FB
:104EC000089580916203813209F081C08091660368
:104ED00090916703029708F07AC08091E800877F7D
:104EE0008093E8008091E80082FD05C08091610315
:104EF0008111F8CF6CC02091F3008091F20090E016
:104F0000922B029729F48091F1008B7F813021F45C
:104F10008091F10080930B038091E8008B7753C060
:104F200080916203813A09F052C0809166039091AA
:104F30006703892B09F04BC08091E800877F80933D
:104F4000E8008091E80080FFFCCF80912B0136C003
:104F5000809162038132D9F5809166039091670355
:104F6000892BA9F58091E800877F8093E8000E9453
:104F7000DB298091640380932B010C942319809189
:104F80006203813221F58091E800877F8093E800F9
:104F90000E94DB298091650380930C030895809122
:104FA0006203813AA1F48091E800877F8093E80052
:104FB0008091E80080FFFCCF80910C038093F1008A
:104FC0008091E8008E778093E8000C94DB290895A7
:104FD00084B7877F84BF0FB6F894A895809160004E
:104FE000886180936000109260000FBE90E080E8BE
:104FF0000FB6F89480936100909361000FBE0E94F9
:1050000070140E942D2A0E948A2A8091E2008460F6
:105010008093E20078940E941F2D0E94761481E212
:1050200091E00E94F31380916103853069F40E943E
:10503000402180915F038823B1F30E9427218823B8
:1050400091F30E948628EFCF0E9482140E9464147C
:105050000E946314E8CF0C942D28292F3327233086
:105060003105C9F060F42130310581F0223031057D
:1050700009F044C08BE390E024EE36E043C02132D7
:105080003105E1F02232310549F138C082E190E08A
:105090002FE137E037C099278130910549F028F09A
:1050A000029761F5E2ECF6E005C0E0EEF6E002C042
:1050B000EEECF6E0849190E09F0124C0611571054B
:1050C00041F061307105D1F489E090E02FE037E0E4
:1050D00019C089E090E026EF36E014C06115710533
:1050E00041F06130710551F48CEB90E021E337E041
:1050F00009C080E490E02DEE37E004C080E090E04D
:1051000020E030E0FA0131832083089580E189BDF9
:1051100082E189BD09B400FEFDCF8091D8008F7D6A
:105120008093D8008091E00082608093E0008091BD
:10513000E00081FDFCCF0895CF92DF92EF92FF92C5
:105140000F931F93CF93DF93EC018B017A010E94A1
:10515000FA29811133C0E114F10439F0F70180819B
:105160009181081B190BC80FD91FC12CD12C011517
:10517000110519F18091E80085FD16C08091E800C5
:105180008E778093E800E114F10449F0F701808103
:105190009181C80ED91ED182C08285E00FC00E94C5
:1051A000FA29882321F30AC089918093F1000150E4
:1051B0001109FFEFCF1ADF0ADACF80E0DF91CF913C
:1051C0001F910F91FF90EF90DF90CF900895209165
:1051D0006803309169032617370748F06115710598
:1051E00039F42091E8002E772093E80001C0B9013E
:1051F000FC0120E06115710579F18091610388233C
:10520000F1F18530F1F18091E80083FD3CC080919F
:10521000E80082FD2EC08091E80080FFEBCF209156
:10522000F3008091F20090E0922B6115710551F02E
:105230008830910538F421912093F1006150710973
:105240000196F3CF21E0089709F020E08091E80073
:105250008E778093E800CECF2111CFCF0AC0809106
:105260006103882361F0853061F08091E80083FD5F
:105270000AC08091E80082FFF2CF80E0089582E0CA
:10528000089583E0089581E00895209168033091A6
:1052900069032617370748F06115710539F4209125
:1052A000E8002E772093E80001C0B901FC0120E05E
:1052B0006115710591F180916103882309F440C063
:1052C000853009F43FC08091E80083FD3DC08091A6
:1052D000E80082FD2FC08091E80080FFE9CF209197
:1052E000F3008091F20090E0922B6115710559F066
:1052F0008830910540F424912093F100319661505B
:1053000071090196F2CF21E0089709F020E0809121
:10531000E8008E778093E800CBCF2111CCCF0AC074
:1053200080916103882361F0853061F08091E8000D
:1053300083FD0AC08091E80082FFF2CF80E00895EB
:1053400082E0089583E0089581E00895982F9730D2
:1053500068F59093E900981739F07091EC0020916E
:10536000ED005091F00003C0242F762F50E021FD76
:1053700002C09F5FECCF3091EB003E7F3093EB009B
:105380003091ED003D7F3093ED003091EB003160C6
:105390003093EB007093EC002093ED005093F000FD
:1053A0002091EE0027FDE5CF80E008958F70809377
:1053B000E90081E008958091620387FF11C0809128
:1053C000E80082FD05C0809161038111F8CF11C012
:1053D0008091E8008B770BC080916103882349F0AE
:1053E0008091E80080FFF8CF8091E8008E7780936D
:1053F000E80008952091E4003091E50095E64091A1
:10540000EC00842F817040FF23C08091E80080FD74
:105410001DC080916103882399F0853099F08091B7
:10542000EB0085FD11C04091E4005091E500241788
:10543000350729F3915011F09A01E1CF84E00895E6
:1054400082E0089583E0089581E0089580E0089562
:105450004091E80042FFDDCF08950E949B2A0E9400
:10546000A32AE0EEF0E0808181608083E8EDF0E047
:1054700080818F77808319BCA7EDB0E08C918E7FFF
:105480008C9380818F7E80831092600308950F93A8
:105490001F93CF93DF930E949B2A0E94A32AC8EDFB
:1054A000D0E088818F77888388818068888388812D
:1054B0008F7D888319BC1092610310925D03109256
:1054C0005F0310925E0300EE10E0F80180818B7F95
:1054D000808388818160888342E060E080E00E9470
:1054E000A629E1EEF0E080818E7F8083E2EEF0E09D
:1054F000808181608083808188608083F8018081E1
:105500008E7F8083888180618883DF91CF911F9116
:105510000F910895E8EDF0E080818F7E8083E7EDC4
:10552000F0E080818160808384E082BF81E08093AD
:1055300060030C94472AE8EDF0E080818E7F808341
:105540001092E20008951092DA001092E10008959E
:105550001F920F920FB60F9211242F933F934F93E8
:105560005F936F937F938F939F93AF93BF93EF93CB
:10557000FF938091E10082FF0BC08091E20082FFE7
:1055800007C08091E1008B7F8093E1000E941E2D77
:105590008091DA0080FF1FC08091D80080FF1BC07F
:1055A0008091DA008E7F8093DA008091D90080FFAD
:1055B0000DC080E189BD82E189BD09B400FEFDCF47
:1055C00081E0809361030E940C2705C019BC1092F2
:1055D00061030E941A278091E10080FF19C0809129
:1055E000E20080FF15C08091E2008E7F8093E20090
:1055F0008091E20080618093E2008091D800806217
:105600008093D80019BC85E0809361030E941E2717
:105610008091E10084FF30C08091E20084FF2CC0C3
:1056200080E189BD82E189BD09B400FEFDCF809192
:10563000D8008F7D8093D8008091E1008F7E809389
:10564000E1008091E2008F7E8093E2008091E20091
:1056500081608093E20080915D03882311F084E0F3
:1056600007C08091E30087FD02C081E001C083E0B4
:10567000809361030E941F278091E10083FF29C06E
:105680008091E20083FF25C08091E100877F8093B5
:10569000E10082E08093610310925D038091E1005C
:1056A0008E7F8093E1008091E2008E7F8093E20004
:1056B0008091E20080618093E20042E060E080E05F
:1056C0000E94A6298091F00088608093F0000E94DB
:1056D0001D27FF91EF91BF91AF919F918F917F9186
:1056E0006F915F914F913F912F910F900FBE0F904F
:1056F0001F9018951F920F920FB60F9211242F939F
:105700003F934F935F936F937F938F939F93AF9349
:10571000BF93CF93DF93EF93FF93C091E900CF70D6
:105720008091EC00D82FD17080FDD0E81092E90074
:105730008091F000877F8093F00078940E94BE2BC8
:105740001092E9008091F00088608093F000CD2BEA
:10575000CF70C093E900FF91EF91DF91CF91BF919E
:10576000AF919F918F917F916F915F914F913F91F9
:105770002F910F900FBE0F901F9018951F93CF93EE
:10578000DF93CDB7DEB7AA970FB6F894DEBF0FBE92
:10579000CDBFE2E6F3E08091F100819323E0EA36A9
:1057A000F207C9F70E942B278091E80083FF2EC1E2
:1057B0008091620390916303492F50E04A30510574
:1057C00008F024C1FA01E857FF4F0C94A02D80384F
:1057D00021F0823809F01AC108C080915E039091CF
:1057E0005F03992389F082600FC0809166038F70F8
:1057F000873008F00BC18093E9008091EB0085FBB6
:10580000882780F91092E9009091E800977F9093A3
:10581000E8008093F1001092F100D1C0282F2D7F75
:1058200009F0F4C0882319F0823061F0EFC0809154
:105830006403813009F0EAC0933009F080E080937E
:105840005F032EC08091640381112AC0809166039A
:105850008F702FEF280F263008F0D8C08093E90012
:105860002091EB0020FF1CC0933021F48091EB00CD
:10587000806214C09091EB0090619093EB0021E066
:1058800030E0A90102C0440F551F8A95E2F740930A
:10589000EA001092EA008091EB0088608093EB00B0
:1058A0001092E9008091E800877F8093E8000E94D1
:1058B000DB29ACC08111AAC0109164031F778091CD
:1058C000E3008078812B8093E3008091E800877F5C
:1058D0008093E8000E94DB298091E80080FFFCCFE4
:1058E0008091E30080688093E300111102C082E0A0
:1058F00001C083E08093610389C08058823008F042
:1059000085C080916403909165038C3D53E09507B9
:1059100079F583E08A838AE289834FB7F894DE01C0
:10592000139620E03EE051E2E32FF0E05093570061
:10593000E49120FF03C0E295EF703F5FEF708E2F80
:1059400090E0EA3010F0C79601C0C0968D939D9309
:105950002F5F243149F74FBF8091E800877F809304
:10596000E8006AE270E0CE0101960E94E72816C0C6
:105970006091660370916703AE014F5F5F4F0E94B5
:105980002B28BC01892B09F441C09091E800977F36
:105990009093E80089819A810E9445298091E800CE
:1059A0008B778093E80032C0803881F58091E800E1
:1059B000877F8093E80080915D038093F100809160
:1059C000E8008E7772CF811121C08091640390919D
:1059D000650399270297D4F48091E800877F80932C
:1059E000E8008091640380935D030E94DB2980912D
:1059F0005D03811106C08091E30087FD02C081E054
:105A000001C084E0809361030E9421278091E80017
:105A100083FF0AC08091E800877F8093E80080912F
:105A2000EB0080628093EB00AA960FB6F894DEBF7D
:105A30000FBECDBFDF91CF911F9108950895CF93F1
:105A4000809161038823A1F0C091E900CF7090910B
:105A5000EC00892F817090FD80E8C82B1092E9003E
:105A60008091E80083FD0E94BE2BCF70C093E900B7
:105A7000CF910895DB018F939F930E94C42DBF9116
:105A8000AF91A29F800D911DA39F900DB29F900D8D
:105A900011240895991B79E004C0991F961708F006
:105AA000961B881F7A95C9F780950895AA1BBB1B82
:105AB00051E107C0AA1FBB1FA617B70710F0A61B0E
:105AC000B70B881F991F5A95A9F780959095BC012F
:105AD000CD01089597FB072E16F4009407D077FDAB
